:060000000A128A110C280F
:10000800FE00030EF0000A08F1000A128A11EE2D14
:100018000A128A110F2883136B30FD000630FE0088
:100028000A30FF00603084000A128A11D0250A12B3
:100038008A11A0308400B4300A128A1120260A12CC
:100048008A11203084004B300A128A112026FB01C5
:10005800FA0183010A128A112A2B5308C300520895
:10006800C2000230B807003003180130B907003069
:1000780003180130BA07003003180130BB073408F1
:100088003802DC003508031C350A3902DD00430854
:10009800803AD4006508803A5402031D5528640844
:1000A8004202031893280530F2000030F30083124F
:1000B80003136308F5006208F4000A128A11A323E7
:1000C8000A128A117308CC007208CB000330CD00E5
:1000D8000030CE000A128A114D250A128A114C08E6
:1000E800803AD4005D08803A5402031D7D285C08DC
:1000F8004B0203189328831203134308803AD40051
:100108006708803A5402031D8B28660842020318C8
:100118009328831203134308E7004208E60083127A
:1001280003136508803AD4004308803A5402031D3B
:100138009F28420864020318B5288312031369082C
:10014800803AD4004308803A5402031DAD2842087F
:1001580068020318B528831203134308E90042080C
:10016800E800831203135D08803AFF0080307F02A5
:10017800031DC028FB305C02031CAE298312031345
:100188006508803AD4004308803A5402031DCE28FB
:10019800420864020318AE29831203134908031D99
:1001A800AE290530F2000030F3006308F50062085C
:1001B800F4000A128A11A3230A128A117308CC00C8
:1001C8007208CB000330CD000030CE000A128A112D
:1001D8004D250A128A114C08803AD4005D08803AED
:1001E8005402031DF9285C084B020318AE2901309C
:1001F80083120313C90034083802E2003508031CCF
:10020800350A3902E3003B08B7003A08B600390856
:10021800B5003808B4004A0803193329CA01DA01BD
:10022800DB01831203135A08D4005407203E8400CC
:10023800620883138000840A630880000130DA07AB
:100248000318DB0A0030DB075B08803AFF008030C8
:100258007F02031D31290A305A02031C1529831213
:1002680003136A0803193C29EA010130CA0008008F
:10027800D801D901DE01DF01831203135E08D4001F
:100288005407223E840083130008D500840A00081E
:10029800D6005E08D7005707203E84005508800026
:1002A800840A560880005E08D4005407203E840063
:1002B8000008D500840A0008D6005508D807031896
:1002C800D90A5608D9070130DE070318DF0A0030BB
:1002D800DF075F08803AFF0080307F02031D762920
:1002E80009305E02031C4029831203136308B3001C
:1002F8006208B2003208D8070318D90A3308D907A8
:100308000A30F2000030F3005908F5005808F400EC
:100318000A128A1199240A128A117308D9007208DC
:10032800D8005808F2005908F300F401F50100302C
:10033800F9000030F800EA30F7006030F6000A12E1
:100348008A119D220A128A117308C5007208C40016
:100358000130C800831203134308803AD4006508AB
:10036800803A5402031DBA29640842020318E72997
:10037800831203134903031DE729C90166086802AC
:10038800C6006708031C670A6902C7000230F2004A
:100398000030F3004708F5004608F4000A128A11F5
:1003A800A3230A128A1166087207E4006708031873
:1003B800670A7307E5006508E9006408E80065084E
:1003C800E7006408E600831203135D08803AFF0023
:1003D80089307F02031DF229C5305C02031C080026
:1003E800123083120313E4000230E5000030E80005
:1003F8000230E9000030E6000230E7003B08B700B1
:100408003A08B6003908B5003808B4000130EA00E7
:10041800CA0108002C30F2000130F3000A128A11D8
:10042800B9250A128A1130300A128A11DD250A12FA
:100438008A112C30F2000130F3000A128A11B92512
:100448000A128A1130300A128A11DD250A128A111D
:100458002C30F2000130F3000A128A11B9250A1271
:100468008A1130300A128A11DD250A128A112C30BD
:10047800F2000130F3000A128A11B9250A128A1112
:1004880020300A128A11DD250A128A112C30F20056
:100498000130F3000A128A11B9250A128A110C30A8
:1004A8000A128A1154240A128A112C30F2000130DF
:1004B800F3000A128A11B9250A128A1104300A12A5
:1004C8008A1154240A128A112C30F2000130F300E8
:1004D8000A128A11B9250A128A1185300A128A115C
:1004E80054240A128A112C30F2000130F3000A1247
:1004F8008A11B9250A128A1106300A128A1154245F
:100508000A128A112C30F2000130F3000A128A1103
:10051800B9250A128A1101300A128A1154240A12C2
:100528008A112C30F2000130F3000A128A11B92521
:100538000800CD01F51FAD2AF209F309F409F50900
:10054800F20A0319F30A0319F40A0319F50ACD018B
:10055800CD0AF91FBE2AF609F709F809F909F60ABA
:100568000319F70A0319F80A0319F90A0130FF00F9
:100578007F08CD060030D1000030D0000030CF0019
:100588000030CE0075087404730472040319132B29
:10059800CC01CC0AF51BDE2A0130CB000310F20D8A
:1005A800F30DF40DF50DCB0BD22A0130FF007F08B7
:1005B800CC07CE2A0130CB000310CE0DCF0DD00DC5
:1005C800D10DCB0BE02A75087902031DF52A7408B2
:1005D8007802031DF52A73087702031DF52A7208AD
:1005E8007602031C062B7208F6027308031C730FAD
:1005F800F7027408031C740FF8027508031C750FC2
:10060800F9024E1401300310F50CF40CF30CF20C43
:10061800FF3E031D072B0130CC02031DDE2A4D08C7
:100628000319212BCE09CF09D009D109CE0A031904
:10063800CF0A0319D00A0319D10A5108F500500846
:10064800F4004F08F3004E08F20008000A128A115D
:100658008B250A128A11013083124D2B0030F400C9
:10066800F5000A128A1107250A128A1175088312E1
:10067800C1007408C00002304D2B4108D300400867
:10068800D2000A128A1131200A128A110330831209
:100698000313E0000030E1008D2B4803031D8B2B72
:1006A800C80180300A128A1154240A128A110230B1
:1006B8000A128A112B250A128A114508CC0044080F
:1006C800CB000A128A11FC230A128A110B300A1273
:1006D8008A112B250A128A11C0300A128A11542451
:1006E8000A128A110D300A128A112B250A128A1150
:1006F8006308CC006208CB000A128A11FC230A1294
:100708008A110B300A128A112B250A128A11E0016C
:10071800E1016108003A0319922B8D2B6008003A19
:1007280003198D2B013A0319322B033A0319412B74
:10073800013A0319512B8D2B0A128A110C28F70143
:10074800F31FAD2BF209F309F20A0319F30AF701B3
:10075800F70AF51FB82BF409F509F40A0319F50A85
:100768000130FF007F08F706F801F90172087304E9
:100778000319EF2BF601F60AF31BCE2B01300310F9
:10078800F20DF30DFF3E031DC32B0130FF007F0860
:10079800F607C02B01300310F80DF90DFF3E031DBD
:1007A800CF2B73087502031DDB2B72087402031C20
:1007B800E42B7208F4027308031CF503F50278149D
:1007C80001300310F30CF20CFF3E031DE52B013042
:1007D800F602031DCE2B77080319F72BF809F90940
:1007E800F80A0319F90A7908F3007808F2000800F2
:1007F800CE01CF014B084C040319322C0A30F20009
:100808000030F3004C08F5004B08F4000A128A1176
:10081800D5240A128A114E08CD004D07A03E840047
:10082800720883138000840A730880000A30F2007B
:100838000030F3004C08F5004B08F4000A128A1146
:1008480099240A128A117308CC007208CB0001306F
:10085800CE070318CF0A0030CF07FE2BFF30CE0794
:100868000318CF0AFF30CF074F08D1004E08D00039
:10087800D11B08005008CD004D07A03E840083130B
:100888000008303EFB007B080A128A1128260A124B
:100898008A11FF30D0070318D10AFF30D1073C2C4A
:1008A800F7007A1C592C7A105B2C831206108312DD
:1008B80086107708F800F030FF007F08F8050F3041
:1008C800FF007F0886057808FF007F088604061564
:1008D8002C30F2000130F3000A128A11B9250A12ED
:1008E8008A11831206117708F60003300310F60DFB
:1008F800FF3E031D7A2C0310760DF800F030FF0040
:100908007F08F8050F30FF007F0886057808FF008C
:100918007F08860406152C30F2000130F3000A1215
:100928008A11B925831206110800F601F701720829
:1009380073040319D02CF801F80AF31BAF2C01300B
:100948000310F20DF30DFF3E031DA42C0130FF0030
:100958007F08F807A12C01300310F60DF70DFF3EB4
:10096800031DB02C73087502031DBC2C7208740299
:10097800031CC52C7208F4027308031CF503F50266
:10098800761401300310F30CF20CFF3E031DC62C45
:100998000130F802031DAF2C7708F3007608F20047
:1009A8000800720873040319022DF601F60AF31BF6
:1009B800E92C01300310F20DF30DFF3E031DDE2C70
:1009C8000130FF007F08F607DB2C73087502031D52
:1009D800EF2C72087402031CF72C7208F4027308D7
:1009E800031CF503F50201300310F30CF20CFF3E73
:1009F800031DF82C0130F602031DE92C7508F300DD
:100A08007408F20008007508803AFF0080307F0201
:100A1800031D102D033074020318142D0130152DF9
:100A280000300138831203139F00E830F2000330CE
:100A3800F3000A128A11FD250A128A111F151F19BF
:100A4800232D1E08F50083161E08F4000800CD00AB
:100A5800CB01CC014B084D0784000A128A116E2580
:100A68000A128A11003A031908004B084D0784003E
:100A78000A128A116E250A128A110A128A11282668
:100A88000A128A110130CB070318CC0A0030CC07B0
:100A98002E2DCF01D0014B1C572D4D08CF07031821
:100AA800D00A4E08D00701300310CD0DCE0DFF3E01
:100AB800031D582D01300310CC0CCB0CFF3E031D39
:100AC8005F2D4B084C04031D4F2D5008CC004F08D8
:100AD800CB00080005308A000408840A8207003425
:100AE800FF34423450344D343A342D3420342034D9
:100AF800203420342034003449342E3442342E3407
:100B080049343A342D3420342034203400348316C8
:100B180086010A128A110E220A128A110A128A11F1
:100B280015260A128A110A128A113A260A128A11FD
:100B38008B170B170A128A11302608008B120B111B
:100B48007A308312031381000130BC070318BD0AF1
:100B58000030BD073C083D040319B72D0A128A115D
:100B68003526BC01BD018B160800F401F501F4011E
:100B7800F50173087502031DC32D7208740203186A
:100B880008000130F4070318F50A0030F507BD2DF9
:100B98007E088A007F088200CC250A128A1180000C
:100BA800840A04087D0603190034FF0A0319FE0AA3
:100BB800D02DF600831206108610760886000615DA
:100BC8002C30F2000130F3000A128A11B925831281
:100BD800061108008B1A0B1DF62D0A128A11A22580
:100BE8000A128A1171088A00700E8300FE0E7E0EAA
:100BF8000900FF30F2070318F30AFF30F307720AFF
:100C0800031DFD2D730A03190800FD2DFF34FF3461
:100C180058340234123402340034023400340234BA
:100C280001348316811201168111073081047A304C
:100C3800831281000B11080064008001840A0406F5
:100C4800031900340406212EF9007A1406147908D1
:100C58000A128A11542408009F01803083169F00CD
:100C680008000130E0000030E10008008B160800A1
:02400E007A3FF7
:00000001FF
